S00D000041746D656C2E7372656324
S113000071C000008EC000008CC000008AC00000D7
S113001088C0000086C0000084C0000082C00000C8
S113002080C000007EC000007CC000007AC00000D8
S113003078C0000076C0000074C0000072C00000E8
S113004070C0000047C100006CC000006AC000001E
S113005068C0000066C0000064C0000062C0000008
S113006060C000005EC000005CC000005AC0000018
S113007058C0000056C0000054C0000052C0000028
S113008050C000004EC000004CC000004AC0000038
S113009048C0000014C4000044C0000042C0000076
S11300A040C000003EC000003CC000003AC0000058
S11300B038C0000036C0000034C0000032C0000068
S11300C030C000002EC000002CC000002AC0000078
S11300D028C0000026C0000024C0000022C0000088
S11300E020C0000011241FBECFEFD1E2DEBFCDBF80
S11300F000E00CBF12E0A0E0B2E0ECE3F9E000E0C5
S11301000BBF02C007900D92A230B107D9F725E1C9
S1130110A2E0B2E001C01D92A738B207E1F7CED346
S11301200BC46ECF80E090E00895FFCFFF93FCB73F
S1130130FF93FFB7F894FF93EF93DF93CF93BF93AD
S1130140AF939F938F937F936F935F934F933F935B
S11301502F931F930F93FF92EF92DF92CF92BF9250
S1130160AF929F928F927F926F925F924F923F9243
S11301702F921F920F928DB79EB790937C14809309
S11301807B14E0917D14F0917E14FE5F8081918157
S11301909EBF8DBF0F901F902F903F904F905F9008
S11301A06F907F908F909F90AF90BF90CF90DF9093
S11301B0EF90FF900F911F912F913F914F915F917D
S11301C06F917F918F919F91AF91BF91CF91DF916B
S11301D0EF91FF91FFBFFF91FCBFFF910895FF9343
S11301E0FCB7FF93FFB7F894FF93EF93DF93CF939C
S11301F0BF93AF939F938F937F936F935F934F932B
S11302003F932F931F930F93FF92EF92DF92CF921E
S1130210BF92AF929F928F927F926F925F924F9212
S11302203F922F921F920F92E0917D14F0917E14D1
S11302308DB79EB7FE5F9183808380917B149091EC
S11302407C149EBF8DBF0F901F902F903F904F90B6
S11302505F906F907F908F909F90AF90BF90CF9062
S1130260DF90EF90FF900F911F912F913F914F914D
S11302705F916F917F918F919F91AF91BF91CF913A
S1130280DF91EF91FF91FFBFFF91FCBFFF910895B4
S1130290FC01DB01A95FBD4F1D921C9280819181FD
S11302A0892B29F471836083738362830895A28107
S11302B0B381A95FBD4F6D937C937383628308956B
S11302C0CF93CFB7F89483E08093290288DFCFBF20
S11302D0CF910895FF93FCB7FF93FFB7F894F068AC
S11302E0FF93EF93DF93CF93BF93AF939F938F933A
S11302F07F936F935F934F933F932F931F930F932A
S1130300FF92EF92DF92CF92BF92AF929F928F9221
S11303107F926F925F924F923F922F921F920F9211
S1130320E0917D14F0917E148DB79EB7FE5F9183AA
S1130330808380917B1490917C149EBF8DBF81E05B
S113034080932902E8E8F0E0808191818F589D4FE5
S11303509183808380917B1490917C149EBF8DBF88
S11303600F901F902F903F904F905F906F907F90D1
S11303708F909F90AF90BF90CF90DF90EF90FF90C1
S11303800F911F912F913F914F915F916F917F91A9
S11303908F919F91AF91BF91CF91DF91EF91FF9199
S11303A0FFBFFF91FCBFFF910895F89480EF8AB9D5
S11303B080910002863028F4309100023F5F40E6CD
S11303C004C030910002355040E970EF64E62AE041
S11303D054E174BB862FE9E6F8E13197F1F700C0E8
S11303E000008150C1F714BA88E2E9E6F8E13197D8
S11303F0F1F700C000008150C1F7332311F190E000
S113040044BB822FE9E6F8E13197F1F700C0000020
S11304108150C1F714BA822FE9E6F8E13197F1F778
S113042000C000008150C1F79F5F9313E9CF09C05A
S1130430E9E6F8E13197F1F700C000008150C1F717
S1130440C8CF852FF5CF60911D0270911E026115F2
S1130450710509F495C080912702823009F09AC091
S113046080912802882309F491C080912802893060
S113047008F08CC08FC08091280284E08093000231
S113048094DFE0912802F0E0EE0FFF1FEE5FFD4FD6
S113049080819181892B09F087C08AC0FB01E95FC3
S11304A0FD4F8081918190931E0280931D021182E1
S11304B0108202C062E772E1CB0189529E4FFC01B7
S11304C020E021932F5F2F31E1F725E5FB01EA506E
S11304D0FE4F20832EEE319620837E97108220E8F3
S11304E07F96208332961082E3E2F2E0208131810C
S11304F0DB01A550BE4F3C9320813181FB01E450C8
S1130500FE4F20833196108220E631E0319630830D
S11305103196208331969183808382E03396808361
S11305208091250290912602319691838083E7E29F
S1130530F2E080811B968C938091280214978C930F
S11305408081823029F0833079F08130E1F412C067
S1130550E0912802F0E0EE0FFF1FEE5FFD4F718384
S1130560608381E090E0089585E192E091DE81E08E
S113057090E0089589E192E08BDE81E090E00895B7
S113058080E090E0089581E090E0089581E0809318
S113059000020BDF80912702823009F46CCF809136
S11305A02702823029F46DCF83E080930002FDDEC0
S11305B080912702882309F47DCF70CFE1E8F0E031
S11305C0808182608083EDE2F4E0A2E0B2E02CE678
S11305D032E110821D921D92CF0106969583848389
S11305E0E75FFD4FE217F307A1F710927112109223
S11305F070120F2EFAE2EF2EF2E0FF2EF02DF092A1
S11306001E02E0921D0289E690E1909320028093FD
S11306101F0203E212E085E990E0D80111969C9351
S11306208E93C7E2D2E018820EDF82E990E0F801EF
S11306309183808383E0888306DFF0927E14E092C6
S11306407D1481E080932D0480911502909116020F
S1130650009759F0FC01E95FFD4F808191819093EF
S113066016028093150211821082EFE6F0E0808179
S11306708260808380918400909185008F589D4F83
S1130680909389008093880082E086BB1092801446
S113069010927F14C5E1D2E07724739409E112E04B
S11306A00F2EF2E7CF2EF2E1DF2EF02D0F2EF7E220
S11306B0EF2EF2E0FF2EF02D0F2EF8E2AF2EF2E037
S11306C0BF2EF02D6894662461F880917D1490917A
S11306D07E14FC01ED5FFD4F2081213009F0D9C06B
S11306E08257924189F588819981009771F0FC01C4
S11306F0E95FFD4F20813181398328831182108283
S113070090937E1480937D1418C0D8018D919C9190
S11307101197009771F0FC01E95FFD4F2081318151
S11307202D933C931182108290937E1480937D14B8
S113073004C0D0927E14C0927D14E0917D14F09197
S11307407E14ED5FFD4F7082F1DC809129028230CE
S113075021F130F4882309F499C0813051F092C01A
S1130760843009F471C008F452C0853009F48EC095
S113077089C060917D1470917E14FB01EA5FFD4F86
S11307808081813009F082C033978081813009F003
S11307907DC06082C8017CDD79C055DE9093220261
S11307A0809321028091210290912202892B09F4E5
S11307B06DC0F7018081833061F480917D14909144
S11307C07E14FC01EA5FFD4F2081233009F067C0ED
S11307D05DC060917D1470917E14FB01EA5FFD4F52
S11307E08081813009F052C0D7018C91823029F484
S11307F0F5018081882309F457C0FB01ED5FFD4FAB
S11308008081823009F042C0C80142DD3FC060915E
S11308107D1470917E14F2E162377F07B9F1FB0118
S1130820ED5FFD4F108233968081823049F4349716
S1130830E081F0E0EE0FFF1FEE5FFD4F11821082AA
S11308408DE192E025DD22C080907D1490907E148D
S1130850F401EA5FFD4F8081823049F0833019F062
S1130860813059F407C0B401CE0112DD06C0709284
S1130870140203C0B401C8010BDDF401ED5FFD4FA8
S1130880608204C08BE0809300028FDD1092290205
S11308901CCF88819981009709F029CF36CFFC01BC
S11308A0ED5FFD4F608295CFFB01ED5FFD4F6082F0
S11308B033968081813009F4A0CFE8CF7FDE1F9288
S11308C00F920FB60F9211240BB60F922F933F93F2
S11308D08F939F93EF93FF93E0918514F091861487
S11308E0E957FB4E80818093CE00809185149091CE
S11308F086140196992790938614809385142091E9
S11309008314309184148217930749F4109282144B
S113091010928114E9ECF0E080818F7D8083FF9157
S1130920EF919F918F913F912F910F900BBE0F905C
S10F09300FBE0F901F901895F894FFCF95
S105093C0600AF
S9030000FC
